{
  "_format": "hh-sol-artifact-1",
  "contractName": "Metalarm",
  "sourceName": "contracts/Metalarm.sol",
  "abi": [
    {
      "inputs": [],
      "stateMutability": "nonpayable",
      "type": "constructor"
    },
    {
      "anonymous": false,
      "inputs": [
        {
          "indexed": true,
          "internalType": "address",
          "name": "owner",
          "type": "address"
        },
        {
          "indexed": true,
          "internalType": "address",
          "name": "spender",
          "type": "address"
        },
        {
          "indexed": false,
          "internalType": "uint256",
          "name": "value",
          "type": "uint256"
        }
      ],
      "name": "Approval",
      "type": "event"
    },
    {
      "anonymous": false,
      "inputs": [
        {
          "indexed": true,
          "internalType": "address",
          "name": "previousOwner",
          "type": "address"
        },
        {
          "indexed": true,
          "internalType": "address",
          "name": "newOwner",
          "type": "address"
        }
      ],
      "name": "OwnershipTransferred",
      "type": "event"
    },
    {
      "anonymous": false,
      "inputs": [
        {
          "indexed": false,
          "internalType": "uint256",
          "name": "id",
          "type": "uint256"
        }
      ],
      "name": "Snapshot",
      "type": "event"
    },
    {
      "anonymous": false,
      "inputs": [
        {
          "indexed": true,
          "internalType": "address",
          "name": "from",
          "type": "address"
        },
        {
          "indexed": true,
          "internalType": "address",
          "name": "to",
          "type": "address"
        },
        {
          "indexed": false,
          "internalType": "uint256",
          "name": "value",
          "type": "uint256"
        }
      ],
      "name": "Transfer",
      "type": "event"
    },
    {
      "inputs": [
        {
          "internalType": "address",
          "name": "owner",
          "type": "address"
        },
        {
          "internalType": "address",
          "name": "spender",
          "type": "address"
        }
      ],
      "name": "allowance",
      "outputs": [
        {
          "internalType": "uint256",
          "name": "",
          "type": "uint256"
        }
      ],
      "stateMutability": "view",
      "type": "function"
    },
    {
      "inputs": [
        {
          "internalType": "address",
          "name": "spender",
          "type": "address"
        },
        {
          "internalType": "uint256",
          "name": "amount",
          "type": "uint256"
        }
      ],
      "name": "approve",
      "outputs": [
        {
          "internalType": "bool",
          "name": "",
          "type": "bool"
        }
      ],
      "stateMutability": "nonpayable",
      "type": "function"
    },
    {
      "inputs": [
        {
          "internalType": "address",
          "name": "account",
          "type": "address"
        }
      ],
      "name": "balanceOf",
      "outputs": [
        {
          "internalType": "uint256",
          "name": "",
          "type": "uint256"
        }
      ],
      "stateMutability": "view",
      "type": "function"
    },
    {
      "inputs": [
        {
          "internalType": "address",
          "name": "account",
          "type": "address"
        },
        {
          "internalType": "uint256",
          "name": "snapshotId",
          "type": "uint256"
        }
      ],
      "name": "balanceOfAt",
      "outputs": [
        {
          "internalType": "uint256",
          "name": "",
          "type": "uint256"
        }
      ],
      "stateMutability": "view",
      "type": "function"
    },
    {
      "inputs": [
        {
          "internalType": "uint256",
          "name": "amount",
          "type": "uint256"
        }
      ],
      "name": "burn",
      "outputs": [],
      "stateMutability": "nonpayable",
      "type": "function"
    },
    {
      "inputs": [
        {
          "internalType": "address",
          "name": "account",
          "type": "address"
        },
        {
          "internalType": "uint256",
          "name": "amount",
          "type": "uint256"
        }
      ],
      "name": "burnFrom",
      "outputs": [],
      "stateMutability": "nonpayable",
      "type": "function"
    },
    {
      "inputs": [],
      "name": "decimals",
      "outputs": [
        {
          "internalType": "uint8",
          "name": "",
          "type": "uint8"
        }
      ],
      "stateMutability": "view",
      "type": "function"
    },
    {
      "inputs": [
        {
          "internalType": "address",
          "name": "spender",
          "type": "address"
        },
        {
          "internalType": "uint256",
          "name": "subtractedValue",
          "type": "uint256"
        }
      ],
      "name": "decreaseAllowance",
      "outputs": [
        {
          "internalType": "bool",
          "name": "",
          "type": "bool"
        }
      ],
      "stateMutability": "nonpayable",
      "type": "function"
    },
    {
      "inputs": [
        {
          "internalType": "address",
          "name": "spender",
          "type": "address"
        },
        {
          "internalType": "uint256",
          "name": "addedValue",
          "type": "uint256"
        }
      ],
      "name": "increaseAllowance",
      "outputs": [
        {
          "internalType": "bool",
          "name": "",
          "type": "bool"
        }
      ],
      "stateMutability": "nonpayable",
      "type": "function"
    },
    {
      "inputs": [
        {
          "internalType": "address",
          "name": "to",
          "type": "address"
        },
        {
          "internalType": "uint256",
          "name": "amount",
          "type": "uint256"
        }
      ],
      "name": "mint",
      "outputs": [],
      "stateMutability": "nonpayable",
      "type": "function"
    },
    {
      "inputs": [],
      "name": "name",
      "outputs": [
        {
          "internalType": "string",
          "name": "",
          "type": "string"
        }
      ],
      "stateMutability": "view",
      "type": "function"
    },
    {
      "inputs": [],
      "name": "owner",
      "outputs": [
        {
          "internalType": "address",
          "name": "",
          "type": "address"
        }
      ],
      "stateMutability": "view",
      "type": "function"
    },
    {
      "inputs": [],
      "name": "renounceOwnership",
      "outputs": [],
      "stateMutability": "nonpayable",
      "type": "function"
    },
    {
      "inputs": [],
      "name": "snapshot",
      "outputs": [],
      "stateMutability": "nonpayable",
      "type": "function"
    },
    {
      "inputs": [],
      "name": "symbol",
      "outputs": [
        {
          "internalType": "string",
          "name": "",
          "type": "string"
        }
      ],
      "stateMutability": "view",
      "type": "function"
    },
    {
      "inputs": [],
      "name": "totalSupply",
      "outputs": [
        {
          "internalType": "uint256",
          "name": "",
          "type": "uint256"
        }
      ],
      "stateMutability": "view",
      "type": "function"
    },
    {
      "inputs": [
        {
          "internalType": "uint256",
          "name": "snapshotId",
          "type": "uint256"
        }
      ],
      "name": "totalSupplyAt",
      "outputs": [
        {
          "internalType": "uint256",
          "name": "",
          "type": "uint256"
        }
      ],
      "stateMutability": "view",
      "type": "function"
    },
    {
      "inputs": [
        {
          "internalType": "address",
          "name": "recipient",
          "type": "address"
        },
        {
          "internalType": "uint256",
          "name": "amount",
          "type": "uint256"
        }
      ],
      "name": "transfer",
      "outputs": [
        {
          "internalType": "bool",
          "name": "",
          "type": "bool"
        }
      ],
      "stateMutability": "nonpayable",
      "type": "function"
    },
    {
      "inputs": [
        {
          "internalType": "address",
          "name": "sender",
          "type": "address"
        },
        {
          "internalType": "address",
          "name": "recipient",
          "type": "address"
        },
        {
          "internalType": "uint256",
          "name": "amount",
          "type": "uint256"
        }
      ],
      "name": "transferFrom",
      "outputs": [
        {
          "internalType": "bool",
          "name": "",
          "type": "bool"
        }
      ],
      "stateMutability": "nonpayable",
      "type": "function"
    },
    {
      "inputs": [
        {
          "internalType": "address",
          "name": "newOwner",
          "type": "address"
        }
      ],
      "name": "transferOwnership",
      "outputs": [],
      "stateMutability": "nonpayable",
      "type": "function"
    }
  ],
  "bytecode": "0x60806040523480156200001157600080fd5b506040518060400160405280600881526020017f4d6574616c61726d0000000000000000000000000000000000000000000000008152506040518060400160405280600681526020017f4d414c41524d00000000000000000000000000000000000000000000000000008152508160039080519060200190620000969291906200062d565b508060049080519060200190620000af9291906200062d565b5050506000620000c4620001a860201b60201c565b905080600960006101000a81548173ffffffffffffffffffffffffffffffffffffffff021916908373ffffffffffffffffffffffffffffffffffffffff1602179055508073ffffffffffffffffffffffffffffffffffffffff16600073ffffffffffffffffffffffffffffffffffffffff167f8be0079c531659141344cd1fd0a4f28419497f9722a3daafe3b4186f6b6457e060405160405180910390a350620001a23362000178620001b060201b60201c565b600a62000186919062000838565b620f424062000196919062000975565b620001b960201b60201c565b62000ac9565b600033905090565b60006012905090565b600073ffffffffffffffffffffffffffffffffffffffff168273ffffffffffffffffffffffffffffffffffffffff1614156200022c576040517f08c379a0000000000000000000000000000000000000000000000000000000008152600401620002239062000730565b60405180910390fd5b62000240600083836200031e60201b60201c565b806002600082825462000254919062000780565b92505081905550806000808473ffffffffffffffffffffffffffffffffffffffff1673ffffffffffffffffffffffffffffffffffffffff1681526020019081526020016000206000828254620002ab919062000780565b925050819055508173ffffffffffffffffffffffffffffffffffffffff16600073ffffffffffffffffffffffffffffffffffffffff167fddf252ad1be2c89b69c2b068fc378daa952ba7f163c4a11628f55a4df523b3ef8360405162000312919062000752565b60405180910390a35050565b620003368383836200033b60201b62000e3b1760201c565b505050565b620003538383836200043660201b62000ef51760201c565b600073ffffffffffffffffffffffffffffffffffffffff168373ffffffffffffffffffffffffffffffffffffffff161415620003b0576200039a826200043b60201b60201c565b620003aa6200049e60201b60201c565b62000431565b600073ffffffffffffffffffffffffffffffffffffffff168273ffffffffffffffffffffffffffffffffffffffff1614156200040d57620003f7836200043b60201b60201c565b620004076200049e60201b60201c565b62000430565b6200041e836200043b60201b60201c565b6200042f826200043b60201b60201c565b5b5b505050565b505050565b6200049b600560008373ffffffffffffffffffffffffffffffffffffffff1673ffffffffffffffffffffffffffffffffffffffff1681526020019081526020016000206200048f83620004c260201b60201c565b6200050a60201b60201c565b50565b620004c06006620004b46200059d60201b60201c565b6200050a60201b60201c565b565b60008060008373ffffffffffffffffffffffffffffffffffffffff1673ffffffffffffffffffffffffffffffffffffffff168152602001908152602001600020549050919050565b6000620005236008620005a760201b62000efa1760201c565b9050806200053a84600001620005b560201b60201c565b1015620005985782600001819080600181540180825580915050600190039060005260206000200160009091909190915055826001018290806001815401808255809150506001900390600052602060002001600090919091909150555b505050565b6000600254905090565b600081600001549050919050565b60008082805490501415620005ce576000905062000628565b8160018380549050620005e29190620009d6565b815481106200061a577f4e487b7100000000000000000000000000000000000000000000000000000000600052603260045260246000fd5b906000526020600020015490505b919050565b8280546200063b9062000a28565b90600052602060002090601f0160209004810192826200065f5760008555620006ab565b82601f106200067a57805160ff1916838001178555620006ab565b82800160010185558215620006ab579182015b82811115620006aa5782518255916020019190600101906200068d565b5b509050620006ba9190620006be565b5090565b5b80821115620006d9576000816000905550600101620006bf565b5090565b6000620006ec601f836200076f565b91507f45524332303a206d696e7420746f20746865207a65726f2061646472657373006000830152602082019050919050565b6200072a8162000a11565b82525050565b600060208201905081810360008301526200074b81620006dd565b9050919050565b60006020820190506200076960008301846200071f565b92915050565b600082825260208201905092915050565b60006200078d8262000a11565b91506200079a8362000a11565b9250827fffffffffffffffffffffffffffffffffffffffffffffffffffffffffffffffff03821115620007d257620007d162000a5e565b5b828201905092915050565b6000808291508390505b60018511156200082f5780860481111562000807576200080662000a5e565b5b6001851615620008175780820291505b8081029050620008278562000abc565b9450620007e7565b94509492505050565b6000620008458262000a11565b9150620008528362000a1b565b9250620008817fffffffffffffffffffffffffffffffffffffffffffffffffffffffffffffffff848462000889565b905092915050565b6000826200089b57600190506200096e565b81620008ab57600090506200096e565b8160018114620008c45760028114620008cf5762000905565b60019150506200096e565b60ff841115620008e457620008e362000a5e565b5b8360020a915084821115620008fe57620008fd62000a5e565b5b506200096e565b5060208310610133831016604e8410600b84101617156200093f5782820a90508381111562000939576200093862000a5e565b5b6200096e565b6200094e8484846001620007dd565b9250905081840481111562000968576200096762000a5e565b5b81810290505b9392505050565b6000620009828262000a11565b91506200098f8362000a11565b9250817fffffffffffffffffffffffffffffffffffffffffffffffffffffffffffffffff0483118215151615620009cb57620009ca62000a5e565b5b828202905092915050565b6000620009e38262000a11565b9150620009f08362000a11565b92508282101562000a065762000a0562000a5e565b5b828203905092915050565b6000819050919050565b600060ff82169050919050565b6000600282049050600182168062000a4157607f821691505b6020821081141562000a585762000a5762000a8d565b5b50919050565b7f4e487b7100000000000000000000000000000000000000000000000000000000600052601160045260246000fd5b7f4e487b7100000000000000000000000000000000000000000000000000000000600052602260045260246000fd5b60008160011c9050919050565b61274e8062000ad96000396000f3fe608060405234801561001057600080fd5b506004361061012c5760003560e01c8063715018a6116100ad578063981b24d011610071578063981b24d01461031f578063a457c2d71461034f578063a9059cbb1461037f578063dd62ed3e146103af578063f2fde38b146103df5761012c565b8063715018a6146102b357806379cc6790146102bd5780638da5cb5b146102d957806395d89b41146102f75780639711715a146103155761012c565b806339509351116100f457806339509351146101eb57806340c10f191461021b57806342966c68146102375780634ee2cd7e1461025357806370a08231146102835761012c565b806306fdde0314610131578063095ea7b31461014f57806318160ddd1461017f57806323b872dd1461019d578063313ce567146101cd575b600080fd5b6101396103fb565b6040516101469190612252565b60405180910390f35b61016960048036038101906101649190611be0565b61048d565b6040516101769190612237565b60405180910390f35b6101876104ab565b6040516101949190612454565b60405180910390f35b6101b760048036038101906101b29190611b91565b6104b5565b6040516101c49190612237565b60405180910390f35b6101d56105b6565b6040516101e2919061246f565b60405180910390f35b61020560048036038101906102009190611be0565b6105bf565b6040516102129190612237565b60405180910390f35b61023560048036038101906102309190611be0565b61066b565b005b610251600480360381019061024c9190611c1c565b6106f5565b005b61026d60048036038101906102689190611be0565b610709565b60405161027a9190612454565b60405180910390f35b61029d60048036038101906102989190611b2c565b610779565b6040516102aa9190612454565b60405180910390f35b6102bb6107c1565b005b6102d760048036038101906102d29190611be0565b6108fe565b005b6102e1610982565b6040516102ee919061221c565b60405180910390f35b6102ff6109ac565b60405161030c9190612252565b60405180910390f35b61031d610a3e565b005b61033960048036038101906103349190611c1c565b610ac5565b6040516103469190612454565b60405180910390f35b61036960048036038101906103649190611be0565b610af6565b6040516103769190612237565b60405180910390f35b61039960048036038101906103949190611be0565b610bea565b6040516103a69190612237565b60405180910390f35b6103c960048036038101906103c49190611b55565b610c08565b6040516103d69190612454565b60405180910390f35b6103f960048036038101906103f49190611b2c565b610c8f565b005b60606003805461040a906125e9565b80601f0160208091040260200160405190810160405280929190818152602001828054610436906125e9565b80156104835780601f1061045857610100808354040283529160200191610483565b820191906000526020600020905b81548152906001019060200180831161046657829003601f168201915b5050505050905090565b60006104a161049a610f08565b8484610f10565b6001905092915050565b6000600254905090565b60006104c28484846110db565b6000600160008673ffffffffffffffffffffffffffffffffffffffff1673ffffffffffffffffffffffffffffffffffffffff168152602001908152602001600020600061050d610f08565b73ffffffffffffffffffffffffffffffffffffffff1673ffffffffffffffffffffffffffffffffffffffff1681526020019081526020016000205490508281101561058d576040517f08c379a000000000000000000000000000000000000000000000000000000000815260040161058490612334565b60405180910390fd5b6105aa85610599610f08565b85846105a5919061252d565b610f10565b60019150509392505050565b60006012905090565b60006106616105cc610f08565b8484600160006105da610f08565b73ffffffffffffffffffffffffffffffffffffffff1673ffffffffffffffffffffffffffffffffffffffff16815260200190815260200160002060008873ffffffffffffffffffffffffffffffffffffffff1673ffffffffffffffffffffffffffffffffffffffff1681526020019081526020016000205461065c91906124a6565b610f10565b6001905092915050565b610673610f08565b73ffffffffffffffffffffffffffffffffffffffff16610691610982565b73ffffffffffffffffffffffffffffffffffffffff16146106e7576040517f08c379a00000000000000000000000000000000000000000000000000000000081526004016106de90612354565b60405180910390fd5b6106f1828261135a565b5050565b610706610700610f08565b826114ae565b50565b600080600061075684600560008873ffffffffffffffffffffffffffffffffffffffff1673ffffffffffffffffffffffffffffffffffffffff168152602001908152602001600020611682565b915091508161076d5761076885610779565b61076f565b805b9250505092915050565b60008060008373ffffffffffffffffffffffffffffffffffffffff1673ffffffffffffffffffffffffffffffffffffffff168152602001908152602001600020549050919050565b6107c9610f08565b73ffffffffffffffffffffffffffffffffffffffff166107e7610982565b73ffffffffffffffffffffffffffffffffffffffff161461083d576040517f08c379a000000000000000000000000000000000000000000000000000000000815260040161083490612354565b60405180910390fd5b600073ffffffffffffffffffffffffffffffffffffffff16600960009054906101000a900473ffffffffffffffffffffffffffffffffffffffff1673ffffffffffffffffffffffffffffffffffffffff167f8be0079c531659141344cd1fd0a4f28419497f9722a3daafe3b4186f6b6457e060405160405180910390a36000600960006101000a81548173ffffffffffffffffffffffffffffffffffffffff021916908373ffffffffffffffffffffffffffffffffffffffff160217905550565b60006109118361090c610f08565b610c08565b905081811015610956576040517f08c379a000000000000000000000000000000000000000000000000000000000815260040161094d90612374565b60405180910390fd5b61097383610962610f08565b848461096e919061252d565b610f10565b61097d83836114ae565b505050565b6000600960009054906101000a900473ffffffffffffffffffffffffffffffffffffffff16905090565b6060600480546109bb906125e9565b80601f01602080910402602001604051908101604052809291908181526020018280546109e7906125e9565b8015610a345780601f10610a0957610100808354040283529160200191610a34565b820191906000526020600020905b815481529060010190602001808311610a1757829003601f168201915b5050505050905090565b610a46610f08565b73ffffffffffffffffffffffffffffffffffffffff16610a64610982565b73ffffffffffffffffffffffffffffffffffffffff1614610aba576040517f08c379a0000000000000000000000000000000000000000000000000000000008152600401610ab190612354565b60405180910390fd5b610ac26117a0565b50565b6000806000610ad5846006611682565b9150915081610aeb57610ae66104ab565b610aed565b805b92505050919050565b60008060016000610b05610f08565b73ffffffffffffffffffffffffffffffffffffffff1673ffffffffffffffffffffffffffffffffffffffff16815260200190815260200160002060008573ffffffffffffffffffffffffffffffffffffffff1673ffffffffffffffffffffffffffffffffffffffff16815260200190815260200160002054905082811015610bc2576040517f08c379a0000000000000000000000000000000000000000000000000000000008152600401610bb990612414565b60405180910390fd5b610bdf610bcd610f08565b858584610bda919061252d565b610f10565b600191505092915050565b6000610bfe610bf7610f08565b84846110db565b6001905092915050565b6000600160008473ffffffffffffffffffffffffffffffffffffffff1673ffffffffffffffffffffffffffffffffffffffff16815260200190815260200160002060008373ffffffffffffffffffffffffffffffffffffffff1673ffffffffffffffffffffffffffffffffffffffff16815260200190815260200160002054905092915050565b610c97610f08565b73ffffffffffffffffffffffffffffffffffffffff16610cb5610982565b73ffffffffffffffffffffffffffffffffffffffff1614610d0b576040517f08c379a0000000000000000000000000000000000000000000000000000000008152600401610d0290612354565b60405180910390fd5b600073ffffffffffffffffffffffffffffffffffffffff168173ffffffffffffffffffffffffffffffffffffffff161415610d7b576040517f08c379a0000000000000000000000000000000000000000000000000000000008152600401610d72906122d4565b60405180910390fd5b8073ffffffffffffffffffffffffffffffffffffffff16600960009054906101000a900473ffffffffffffffffffffffffffffffffffffffff1673ffffffffffffffffffffffffffffffffffffffff167f8be0079c531659141344cd1fd0a4f28419497f9722a3daafe3b4186f6b6457e060405160405180910390a380600960006101000a81548173ffffffffffffffffffffffffffffffffffffffff021916908373ffffffffffffffffffffffffffffffffffffffff16021790555050565b610e46838383610ef5565b600073ffffffffffffffffffffffffffffffffffffffff168373ffffffffffffffffffffffffffffffffffffffff161415610e9157610e84826117f8565b610e8c61184b565b610ef0565b600073ffffffffffffffffffffffffffffffffffffffff168273ffffffffffffffffffffffffffffffffffffffff161415610edc57610ecf836117f8565b610ed761184b565b610eef565b610ee5836117f8565b610eee826117f8565b5b5b505050565b505050565b600081600001549050919050565b600033905090565b600073ffffffffffffffffffffffffffffffffffffffff168373ffffffffffffffffffffffffffffffffffffffff161415610f80576040517f08c379a0000000000000000000000000000000000000000000000000000000008152600401610f77906123d4565b60405180910390fd5b600073ffffffffffffffffffffffffffffffffffffffff168273ffffffffffffffffffffffffffffffffffffffff161415610ff0576040517f08c379a0000000000000000000000000000000000000000000000000000000008152600401610fe7906122f4565b60405180910390fd5b80600160008573ffffffffffffffffffffffffffffffffffffffff1673ffffffffffffffffffffffffffffffffffffffff16815260200190815260200160002060008473ffffffffffffffffffffffffffffffffffffffff1673ffffffffffffffffffffffffffffffffffffffff168152602001908152602001600020819055508173ffffffffffffffffffffffffffffffffffffffff168373ffffffffffffffffffffffffffffffffffffffff167f8c5be1e5ebec7d5bd14f71427d1e84f3dd0314c0f7b2291e5b200ac8c7c3b925836040516110ce9190612454565b60405180910390a3505050565b600073ffffffffffffffffffffffffffffffffffffffff168373ffffffffffffffffffffffffffffffffffffffff16141561114b576040517f08c379a0000000000000000000000000000000000000000000000000000000008152600401611142906123b4565b60405180910390fd5b600073ffffffffffffffffffffffffffffffffffffffff168273ffffffffffffffffffffffffffffffffffffffff1614156111bb576040517f08c379a00000000000000000000000000000000000000000000000000000000081526004016111b290612294565b60405180910390fd5b6111c683838361185f565b60008060008573ffffffffffffffffffffffffffffffffffffffff1673ffffffffffffffffffffffffffffffffffffffff1681526020019081526020016000205490508181101561124c576040517f08c379a000000000000000000000000000000000000000000000000000000000815260040161124390612314565b60405180910390fd5b8181611258919061252d565b6000808673ffffffffffffffffffffffffffffffffffffffff1673ffffffffffffffffffffffffffffffffffffffff16815260200190815260200160002081905550816000808573ffffffffffffffffffffffffffffffffffffffff1673ffffffffffffffffffffffffffffffffffffffff16815260200190815260200160002060008282546112e891906124a6565b925050819055508273ffffffffffffffffffffffffffffffffffffffff168473ffffffffffffffffffffffffffffffffffffffff167fddf252ad1be2c89b69c2b068fc378daa952ba7f163c4a11628f55a4df523b3ef8460405161134c9190612454565b60405180910390a350505050565b600073ffffffffffffffffffffffffffffffffffffffff168273ffffffffffffffffffffffffffffffffffffffff1614156113ca576040517f08c379a00000000000000000000000000000000000000000000000000000000081526004016113c190612434565b60405180910390fd5b6113d66000838361185f565b80600260008282546113e891906124a6565b92505081905550806000808473ffffffffffffffffffffffffffffffffffffffff1673ffffffffffffffffffffffffffffffffffffffff168152602001908152602001600020600082825461143d91906124a6565b925050819055508173ffffffffffffffffffffffffffffffffffffffff16600073ffffffffffffffffffffffffffffffffffffffff167fddf252ad1be2c89b69c2b068fc378daa952ba7f163c4a11628f55a4df523b3ef836040516114a29190612454565b60405180910390a35050565b600073ffffffffffffffffffffffffffffffffffffffff168273ffffffffffffffffffffffffffffffffffffffff16141561151e576040517f08c379a000000000000000000000000000000000000000000000000000000000815260040161151590612394565b60405180910390fd5b61152a8260008361185f565b60008060008473ffffffffffffffffffffffffffffffffffffffff1673ffffffffffffffffffffffffffffffffffffffff168152602001908152602001600020549050818110156115b0576040517f08c379a00000000000000000000000000000000000000000000000000000000081526004016115a7906122b4565b60405180910390fd5b81816115bc919061252d565b6000808573ffffffffffffffffffffffffffffffffffffffff1673ffffffffffffffffffffffffffffffffffffffff168152602001908152602001600020819055508160026000828254611610919061252d565b92505081905550600073ffffffffffffffffffffffffffffffffffffffff168373ffffffffffffffffffffffffffffffffffffffff167fddf252ad1be2c89b69c2b068fc378daa952ba7f163c4a11628f55a4df523b3ef846040516116759190612454565b60405180910390a3505050565b600080600084116116c8576040517f08c379a00000000000000000000000000000000000000000000000000000000081526004016116bf906123f4565b60405180910390fd5b6116d26008610efa565b841115611714576040517f08c379a000000000000000000000000000000000000000000000000000000000815260040161170b90612274565b60405180910390fd5b600061172c858560000161186f90919063ffffffff16565b9050836000018054905081141561174a576000809250925050611799565b6001846001018281548110611788577f4e487b7100000000000000000000000000000000000000000000000000000000600052603260045260246000fd5b906000526020600020015492509250505b9250929050565b60006117ac6008611995565b60006117b86008610efa565b90507f8030e83b04d87bef53480e26263266d6ca66863aa8506aca6f2559d18aa1cb67816040516117e99190612454565b60405180910390a18091505090565b611848600560008373ffffffffffffffffffffffffffffffffffffffff1673ffffffffffffffffffffffffffffffffffffffff16815260200190815260200160002061184383610779565b6119ab565b50565b61185d60066118586104ab565b6119ab565b565b61186a838383610e3b565b505050565b60008083805490501415611886576000905061198f565b600080848054905090505b808210156119105760006118a58383611a28565b9050848682815481106118e1577f4e487b7100000000000000000000000000000000000000000000000000000000600052603260045260246000fd5b906000526020600020015411156118fa5780915061190a565b60018161190791906124a6565b92505b50611891565b60008211801561196e5750838560018461192a919061252d565b81548110611961577f4e487b7100000000000000000000000000000000000000000000000000000000600052603260045260246000fd5b9060005260206000200154145b1561198957600182611980919061252d565b9250505061198f565b81925050505b92915050565b6001816000016000828254019250508190555050565b60006119b76008610efa565b9050806119c684600001611a8f565b1015611a235782600001819080600181540180825580915050600190039060005260206000200160009091909190915055826001018290806001815401808255809150506001900390600052602060002001600090919091909150555b505050565b600060028083611a38919061261b565b600285611a45919061261b565b611a4f91906124a6565b611a5991906124fc565b600283611a6691906124fc565b600285611a7391906124fc565b611a7d91906124a6565b611a8791906124a6565b905092915050565b60008082805490501415611aa65760009050611afd565b8160018380549050611ab8919061252d565b81548110611aef577f4e487b7100000000000000000000000000000000000000000000000000000000600052603260045260246000fd5b906000526020600020015490505b919050565b600081359050611b11816126ea565b92915050565b600081359050611b2681612701565b92915050565b600060208284031215611b3e57600080fd5b6000611b4c84828501611b02565b91505092915050565b60008060408385031215611b6857600080fd5b6000611b7685828601611b02565b9250506020611b8785828601611b02565b9150509250929050565b600080600060608486031215611ba657600080fd5b6000611bb486828701611b02565b9350506020611bc586828701611b02565b9250506040611bd686828701611b17565b9150509250925092565b60008060408385031215611bf357600080fd5b6000611c0185828601611b02565b9250506020611c1285828601611b17565b9150509250929050565b600060208284031215611c2e57600080fd5b6000611c3c84828501611b17565b91505092915050565b611c4e81612561565b82525050565b611c5d81612573565b82525050565b6000611c6e8261248a565b611c788185612495565b9350611c888185602086016125b6565b611c91816126d9565b840191505092915050565b6000611ca9601d83612495565b91507f4552433230536e617073686f743a206e6f6e6578697374656e742069640000006000830152602082019050919050565b6000611ce9602383612495565b91507f45524332303a207472616e7366657220746f20746865207a65726f206164647260008301527f65737300000000000000000000000000000000000000000000000000000000006020830152604082019050919050565b6000611d4f602283612495565b91507f45524332303a206275726e20616d6f756e7420657863656564732062616c616e60008301527f63650000000000000000000000000000000000000000000000000000000000006020830152604082019050919050565b6000611db5602683612495565b91507f4f776e61626c653a206e6577206f776e657220697320746865207a65726f206160008301527f64647265737300000000000000000000000000000000000000000000000000006020830152604082019050919050565b6000611e1b602283612495565b91507f45524332303a20617070726f766520746f20746865207a65726f20616464726560008301527f73730000000000000000000000000000000000000000000000000000000000006020830152604082019050919050565b6000611e81602683612495565b91507f45524332303a207472616e7366657220616d6f756e742065786365656473206260008301527f616c616e636500000000000000000000000000000000000000000000000000006020830152604082019050919050565b6000611ee7602883612495565b91507f45524332303a207472616e7366657220616d6f756e742065786365656473206160008301527f6c6c6f77616e63650000000000000000000000000000000000000000000000006020830152604082019050919050565b6000611f4d602083612495565b91507f4f776e61626c653a2063616c6c6572206973206e6f7420746865206f776e65726000830152602082019050919050565b6000611f8d602483612495565b91507f45524332303a206275726e20616d6f756e74206578636565647320616c6c6f7760008301527f616e6365000000000000000000000000000000000000000000000000000000006020830152604082019050919050565b6000611ff3602183612495565b91507f45524332303a206275726e2066726f6d20746865207a65726f2061646472657360008301527f73000000000000000000000000000000000000000000000000000000000000006020830152604082019050919050565b6000612059602583612495565b91507f45524332303a207472616e736665722066726f6d20746865207a65726f20616460008301527f64726573730000000000000000000000000000000000000000000000000000006020830152604082019050919050565b60006120bf602483612495565b91507f45524332303a20617070726f76652066726f6d20746865207a65726f2061646460008301527f72657373000000000000000000000000000000000000000000000000000000006020830152604082019050919050565b6000612125601683612495565b91507f4552433230536e617073686f743a2069642069732030000000000000000000006000830152602082019050919050565b6000612165602583612495565b91507f45524332303a2064656372656173656420616c6c6f77616e63652062656c6f7760008301527f207a65726f0000000000000000000000000000000000000000000000000000006020830152604082019050919050565b60006121cb601f83612495565b91507f45524332303a206d696e7420746f20746865207a65726f2061646472657373006000830152602082019050919050565b6122078161259f565b82525050565b612216816125a9565b82525050565b60006020820190506122316000830184611c45565b92915050565b600060208201905061224c6000830184611c54565b92915050565b6000602082019050818103600083015261226c8184611c63565b905092915050565b6000602082019050818103600083015261228d81611c9c565b9050919050565b600060208201905081810360008301526122ad81611cdc565b9050919050565b600060208201905081810360008301526122cd81611d42565b9050919050565b600060208201905081810360008301526122ed81611da8565b9050919050565b6000602082019050818103600083015261230d81611e0e565b9050919050565b6000602082019050818103600083015261232d81611e74565b9050919050565b6000602082019050818103600083015261234d81611eda565b9050919050565b6000602082019050818103600083015261236d81611f40565b9050919050565b6000602082019050818103600083015261238d81611f80565b9050919050565b600060208201905081810360008301526123ad81611fe6565b9050919050565b600060208201905081810360008301526123cd8161204c565b9050919050565b600060208201905081810360008301526123ed816120b2565b9050919050565b6000602082019050818103600083015261240d81612118565b9050919050565b6000602082019050818103600083015261242d81612158565b9050919050565b6000602082019050818103600083015261244d816121be565b9050919050565b600060208201905061246960008301846121fe565b92915050565b6000602082019050612484600083018461220d565b92915050565b600081519050919050565b600082825260208201905092915050565b60006124b18261259f565b91506124bc8361259f565b9250827fffffffffffffffffffffffffffffffffffffffffffffffffffffffffffffffff038211156124f1576124f061264c565b5b828201905092915050565b60006125078261259f565b91506125128361259f565b9250826125225761252161267b565b5b828204905092915050565b60006125388261259f565b91506125438361259f565b9250828210156125565761255561264c565b5b828203905092915050565b600061256c8261257f565b9050919050565b60008115159050919050565b600073ffffffffffffffffffffffffffffffffffffffff82169050919050565b6000819050919050565b600060ff82169050919050565b60005b838110156125d45780820151818401526020810190506125b9565b838111156125e3576000848401525b50505050565b6000600282049050600182168061260157607f821691505b60208210811415612615576126146126aa565b5b50919050565b60006126268261259f565b91506126318361259f565b9250826126415761264061267b565b5b828206905092915050565b7f4e487b7100000000000000000000000000000000000000000000000000000000600052601160045260246000fd5b7f4e487b7100000000000000000000000000000000000000000000000000000000600052601260045260246000fd5b7f4e487b7100000000000000000000000000000000000000000000000000000000600052602260045260246000fd5b6000601f19601f8301169050919050565b6126f381612561565b81146126fe57600080fd5b50565b61270a8161259f565b811461271557600080fd5b5056fea2646970667358221220ee5d5cc2e5f302cf056a6decf27f8365bbb5602e0ae807d6cd7f571e6638863d64736f6c63430008000033",
  "linkReferences": {},
  "deployedLinkReferences": {}
}